{
  "_format": "hh-sol-artifact-1",
  "contractName": "EventRegstration",
  "sourceName": "contracts/EventRegistration.sol",
  "abi": [
    {
      "anonymous": false,
      "inputs": [
        {
          "indexed": false,
          "internalType": "uint256",
          "name": "_eventRegistrationClosedAt",
          "type": "uint256"
        }
      ],
      "name": "eventClosed",
      "type": "event"
    },
    {
      "anonymous": false,
      "inputs": [
        {
          "indexed": false,
          "internalType": "string",
          "name": "_name",
          "type": "string"
        },
        {
          "indexed": false,
          "internalType": "string",
          "name": "_date",
          "type": "string"
        },
        {
          "indexed": false,
          "internalType": "string",
          "name": "_time",
          "type": "string"
        },
        {
          "indexed": false,
          "internalType": "uint256",
          "name": "_fees",
          "type": "uint256"
        }
      ],
      "name": "eventDetailsUpdated",
      "type": "event"
    },
    {
      "anonymous": false,
      "inputs": [
        {
          "indexed": false,
          "internalType": "address",
          "name": "_accountAddress",
          "type": "address"
        },
        {
          "indexed": false,
          "internalType": "uint256",
          "name": "_id",
          "type": "uint256"
        },
        {
          "indexed": false,
          "internalType": "uint256",
          "name": "_registrationDateTime",
          "type": "uint256"
        },
        {
          "indexed": false,
          "internalType": "string",
          "name": "_name",
          "type": "string"
        },
        {
          "indexed": false,
          "internalType": "string",
          "name": "_email",
          "type": "string"
        },
        {
          "indexed": false,
          "internalType": "string",
          "name": "_phone",
          "type": "string"
        }
      ],
      "name": "registrationSuccess",
      "type": "event"
    },
    {
      "inputs": [],
      "name": "closeEventRegistration",
      "outputs": [],
      "stateMutability": "nonpayable",
      "type": "function"
    },
    {
      "inputs": [],
      "name": "eventDate",
      "outputs": [
        {
          "internalType": "string",
          "name": "",
          "type": "string"
        }
      ],
      "stateMutability": "view",
      "type": "function"
    },
    {
      "inputs": [],
      "name": "eventName",
      "outputs": [
        {
          "internalType": "string",
          "name": "",
          "type": "string"
        }
      ],
      "stateMutability": "view",
      "type": "function"
    },
    {
      "inputs": [],
      "name": "eventRegistrationClosedAt",
      "outputs": [
        {
          "internalType": "uint256",
          "name": "",
          "type": "uint256"
        }
      ],
      "stateMutability": "view",
      "type": "function"
    },
    {
      "inputs": [],
      "name": "eventRegistrationFee",
      "outputs": [
        {
          "internalType": "uint256",
          "name": "",
          "type": "uint256"
        }
      ],
      "stateMutability": "view",
      "type": "function"
    },
    {
      "inputs": [],
      "name": "eventTime",
      "outputs": [
        {
          "internalType": "string",
          "name": "",
          "type": "string"
        }
      ],
      "stateMutability": "view",
      "type": "function"
    },
    {
      "inputs": [],
      "name": "isEventRegistrationClosed",
      "outputs": [
        {
          "internalType": "bool",
          "name": "",
          "type": "bool"
        }
      ],
      "stateMutability": "view",
      "type": "function"
    },
    {
      "inputs": [],
      "name": "owner",
      "outputs": [
        {
          "internalType": "address",
          "name": "",
          "type": "address"
        }
      ],
      "stateMutability": "view",
      "type": "function"
    },
    {
      "inputs": [
        {
          "internalType": "address",
          "name": "",
          "type": "address"
        }
      ],
      "name": "registeredUsers",
      "outputs": [
        {
          "internalType": "uint256",
          "name": "id",
          "type": "uint256"
        },
        {
          "internalType": "string",
          "name": "name",
          "type": "string"
        },
        {
          "internalType": "string",
          "name": "email",
          "type": "string"
        },
        {
          "internalType": "string",
          "name": "phone",
          "type": "string"
        },
        {
          "internalType": "uint256",
          "name": "paidFees",
          "type": "uint256"
        },
        {
          "internalType": "uint256",
          "name": "registrationDateTime",
          "type": "uint256"
        }
      ],
      "stateMutability": "view",
      "type": "function"
    },
    {
      "inputs": [
        {
          "internalType": "string",
          "name": "_name",
          "type": "string"
        },
        {
          "internalType": "string",
          "name": "_email",
          "type": "string"
        },
        {
          "internalType": "string",
          "name": "_phone",
          "type": "string"
        }
      ],
      "name": "registration",
      "outputs": [],
      "stateMutability": "payable",
      "type": "function"
    },
    {
      "inputs": [],
      "name": "totalReceivedFee",
      "outputs": [
        {
          "internalType": "uint256",
          "name": "",
          "type": "uint256"
        }
      ],
      "stateMutability": "view",
      "type": "function"
    },
    {
      "inputs": [],
      "name": "totalRegisteredUsers",
      "outputs": [
        {
          "internalType": "uint256",
          "name": "",
          "type": "uint256"
        }
      ],
      "stateMutability": "view",
      "type": "function"
    },
    {
      "inputs": [
        {
          "internalType": "string",
          "name": "_eventName",
          "type": "string"
        },
        {
          "internalType": "string",
          "name": "_eventDate",
          "type": "string"
        },
        {
          "internalType": "string",
          "name": "_eventTime",
          "type": "string"
        },
        {
          "internalType": "uint256",
          "name": "_eventRegistrationFee",
          "type": "uint256"
        }
      ],
      "name": "updateEventDetails",
      "outputs": [],
      "stateMutability": "nonpayable",
      "type": "function"
    }
  ],
  "bytecode": "0x60806040526040518060400160405280601281526020017f426c6f636b436861696e20576562696e61720000000000000000000000000000815250600090805190602001906200005192919062000174565b506040518060400160405280600a81526020017f323032322d30362d313200000000000000000000000000000000000000000000815250600190805190602001906200009f92919062000174565b506040518060400160405280600581526020017f31343a303000000000000000000000000000000000000000000000000000000081525060029080519060200190620000ed92919062000174565b506706f05b59d3b200006003556000600460146101000a81548160ff021916908315150217905550600060065560006007553480156200012c57600080fd5b5033600460006101000a81548173ffffffffffffffffffffffffffffffffffffffff021916908373ffffffffffffffffffffffffffffffffffffffff16021790555062000289565b828054620001829062000224565b90600052602060002090601f016020900481019282620001a65760008555620001f2565b82601f10620001c157805160ff1916838001178555620001f2565b82800160010185558215620001f2579182015b82811115620001f1578251825591602001919060010190620001d4565b5b50905062000201919062000205565b5090565b5b808211156200022057600081600090555060010162000206565b5090565b600060028204905060018216806200023d57607f821691505b602082108114156200025457620002536200025a565b5b50919050565b7f4e487b7100000000000000000000000000000000000000000000000000000000600052602260045260246000fd5b61148380620002996000396000f3fe6080604052600436106100c25760003560e01c80634bfbe5df1161007f5780638da5cb5b116100595780638da5cb5b1461023c5780639092fa2614610267578063e9d7f20f14610292578063f5341856146102bd576100c2565b80634bfbe5df146101bb5780635fc74e3f146101e65780638043c9c014610211576100c2565b80630753afdf146100c75780630c317e7b146100e35780630e50cee51461010e578063126d494a146101505780633c7afca514610167578063457f570b14610192575b600080fd5b6100e160048036038101906100dc9190610ca7565b6102e8565b005b3480156100ef57600080fd5b506100f86104f5565b6040516101059190610f64565b60405180910390f35b34801561011a57600080fd5b5061013560048036038101906101309190610c7e565b610583565b6040516101479695949392919061105b565b60405180910390f35b34801561015c57600080fd5b50610165610757565b005b34801561017357600080fd5b5061017c6108bd565b6040516101899190611040565b60405180910390f35b34801561019e57600080fd5b506101b960048036038101906101b49190610d3e565b6108c3565b005b3480156101c757600080fd5b506101d06109e2565b6040516101dd9190610f64565b60405180910390f35b3480156101f257600080fd5b506101fb610a70565b6040516102089190611040565b60405180910390f35b34801561021d57600080fd5b50610226610a76565b6040516102339190610f64565b60405180910390f35b34801561024857600080fd5b50610251610b04565b60405161025e9190610eb8565b60405180910390f35b34801561027357600080fd5b5061027c610b2a565b6040516102899190611040565b60405180910390f35b34801561029e57600080fd5b506102a7610b30565b6040516102b49190611040565b60405180910390f35b3480156102c957600080fd5b506102d2610b36565b6040516102df9190610f49565b60405180910390f35b60001515600460149054906101000a900460ff1615151461033e576040517f08c379a000000000000000000000000000000000000000000000000000000000815260040161033590610fe0565b60405180910390fd5b6003543414610382576040517f08c379a000000000000000000000000000000000000000000000000000000000815260040161037990611000565b60405180910390fd5b60004290506040518060c00160405280600654815260200185815260200184815260200183815260200134815260200182815250600860003373ffffffffffffffffffffffffffffffffffffffff1673ffffffffffffffffffffffffffffffffffffffff16815260200190815260200160002060008201518160000155602082015181600101908051906020019061041b929190610b49565b506040820151816002019080519060200190610438929190610b49565b506060820151816003019080519060200190610455929190610b49565b506080820151816004015560a082015181600501559050506001600660008282546104809190611143565b9250508190555034600760008282546104999190611143565b925050819055507f850ca46b1338e2f0af3727e0c33c13f9891e1d586a28dc5eb132ba545dd686ec3360016006546104d19190611199565b838787876040516104e796959493929190610ed3565b60405180910390a150505050565b6002805461050290611257565b80601f016020809104026020016040519081016040528092919081815260200182805461052e90611257565b801561057b5780601f106105505761010080835404028352916020019161057b565b820191906000526020600020905b81548152906001019060200180831161055e57829003601f168201915b505050505081565b60086020528060005260406000206000915090508060000154908060010180546105ac90611257565b80601f01602080910402602001604051908101604052809291908181526020018280546105d890611257565b80156106255780601f106105fa57610100808354040283529160200191610625565b820191906000526020600020905b81548152906001019060200180831161060857829003601f168201915b50505050509080600201805461063a90611257565b80601f016020809104026020016040519081016040528092919081815260200182805461066690611257565b80156106b35780601f10610688576101008083540402835291602001916106b3565b820191906000526020600020905b81548152906001019060200180831161069657829003601f168201915b5050505050908060030180546106c890611257565b80601f01602080910402602001604051908101604052809291908181526020018280546106f490611257565b80156107415780601f1061071657610100808354040283529160200191610741565b820191906000526020600020905b81548152906001019060200180831161072457829003601f168201915b5050505050908060040154908060050154905086565b600460009054906101000a900473ffffffffffffffffffffffffffffffffffffffff1673ffffffffffffffffffffffffffffffffffffffff163373ffffffffffffffffffffffffffffffffffffffff16146107e7576040517f08c379a00000000000000000000000000000000000000000000000000000000081526004016107de90611020565b60405180910390fd5b6000479050600081111561085f57600460009054906101000a900473ffffffffffffffffffffffffffffffffffffffff1673ffffffffffffffffffffffffffffffffffffffff166108fc829081150290604051600060405180830381858888f1935050505015801561085d573d6000803e3d6000fd5b505b6001600460146101000a81548160ff021916908315150217905550426005819055507f86d7ce8cea57acc6b1c4bf7a21bf2a3912df0a60072ec4f1323c270720b6f1a96005546040516108b29190611040565b60405180910390a150565b60065481565b600460009054906101000a900473ffffffffffffffffffffffffffffffffffffffff1673ffffffffffffffffffffffffffffffffffffffff163373ffffffffffffffffffffffffffffffffffffffff1614610953576040517f08c379a000000000000000000000000000000000000000000000000000000000815260040161094a90611020565b60405180910390fd5b8360009080519060200190610969929190610b49565b508260019080519060200190610980929190610b49565b508160029080519060200190610997929190610b49565b50806003819055507f8c86e125c4a298063cb5bdc8b220d96de074d9cca51117841686be3349ece8cd848484846040516109d49493929190610f86565b60405180910390a150505050565b600180546109ef90611257565b80601f0160208091040260200160405190810160405280929190818152602001828054610a1b90611257565b8015610a685780601f10610a3d57610100808354040283529160200191610a68565b820191906000526020600020905b815481529060010190602001808311610a4b57829003601f168201915b505050505081565b60055481565b60008054610a8390611257565b80601f0160208091040260200160405190810160405280929190818152602001828054610aaf90611257565b8015610afc5780601f10610ad157610100808354040283529160200191610afc565b820191906000526020600020905b815481529060010190602001808311610adf57829003601f168201915b505050505081565b600460009054906101000a900473ffffffffffffffffffffffffffffffffffffffff1681565b60075481565b60035481565b600460149054906101000a900460ff1681565b828054610b5590611257565b90600052602060002090601f016020900481019282610b775760008555610bbe565b82601f10610b9057805160ff1916838001178555610bbe565b82800160010185558215610bbe579182015b82811115610bbd578251825591602001919060010190610ba2565b5b509050610bcb9190610bcf565b5090565b5b80821115610be8576000816000905550600101610bd0565b5090565b6000610bff610bfa846110f6565b6110d1565b905082815260208101848484011115610c1757600080fd5b610c22848285611215565b509392505050565b600081359050610c398161141f565b92915050565b600082601f830112610c5057600080fd5b8135610c60848260208601610bec565b91505092915050565b600081359050610c7881611436565b92915050565b600060208284031215610c9057600080fd5b6000610c9e84828501610c2a565b91505092915050565b600080600060608486031215610cbc57600080fd5b600084013567ffffffffffffffff811115610cd657600080fd5b610ce286828701610c3f565b935050602084013567ffffffffffffffff811115610cff57600080fd5b610d0b86828701610c3f565b925050604084013567ffffffffffffffff811115610d2857600080fd5b610d3486828701610c3f565b9150509250925092565b60008060008060808587031215610d5457600080fd5b600085013567ffffffffffffffff811115610d6e57600080fd5b610d7a87828801610c3f565b945050602085013567ffffffffffffffff811115610d9757600080fd5b610da387828801610c3f565b935050604085013567ffffffffffffffff811115610dc057600080fd5b610dcc87828801610c3f565b9250506060610ddd87828801610c69565b91505092959194509250565b610df2816111cd565b82525050565b610e01816111df565b82525050565b6000610e1282611127565b610e1c8185611132565b9350610e2c818560208601611224565b610e3581611347565b840191505092915050565b6000610e4d601d83611132565b9150610e5882611358565b602082019050919050565b6000610e70602183611132565b9150610e7b82611381565b604082019050919050565b6000610e93603383611132565b9150610e9e826113d0565b604082019050919050565b610eb28161120b565b82525050565b6000602082019050610ecd6000830184610de9565b92915050565b600060c082019050610ee86000830189610de9565b610ef56020830188610ea9565b610f026040830187610ea9565b8181036060830152610f148186610e07565b90508181036080830152610f288185610e07565b905081810360a0830152610f3c8184610e07565b9050979650505050505050565b6000602082019050610f5e6000830184610df8565b92915050565b60006020820190508181036000830152610f7e8184610e07565b905092915050565b60006080820190508181036000830152610fa08187610e07565b90508181036020830152610fb48186610e07565b90508181036040830152610fc88185610e07565b9050610fd76060830184610ea9565b95945050505050565b60006020820190508181036000830152610ff981610e40565b9050919050565b6000602082019050818103600083015261101981610e63565b9050919050565b6000602082019050818103600083015261103981610e86565b9050919050565b60006020820190506110556000830184610ea9565b92915050565b600060c0820190506110706000830189610ea9565b81810360208301526110828188610e07565b905081810360408301526110968187610e07565b905081810360608301526110aa8186610e07565b90506110b96080830185610ea9565b6110c660a0830184610ea9565b979650505050505050565b60006110db6110ec565b90506110e78282611289565b919050565b6000604051905090565b600067ffffffffffffffff82111561111157611110611318565b5b61111a82611347565b9050602081019050919050565b600081519050919050565b600082825260208201905092915050565b600061114e8261120b565b91506111598361120b565b9250827fffffffffffffffffffffffffffffffffffffffffffffffffffffffffffffffff0382111561118e5761118d6112ba565b5b828201905092915050565b60006111a48261120b565b91506111af8361120b565b9250828210156111c2576111c16112ba565b5b828203905092915050565b60006111d8826111eb565b9050919050565b60008115159050919050565b600073ffffffffffffffffffffffffffffffffffffffff82169050919050565b6000819050919050565b82818337600083830152505050565b60005b83811015611242578082015181840152602081019050611227565b83811115611251576000848401525b50505050565b6000600282049050600182168061126f57607f821691505b60208210811415611283576112826112e9565b5b50919050565b61129282611347565b810181811067ffffffffffffffff821117156112b1576112b0611318565b5b80604052505050565b7f4e487b7100000000000000000000000000000000000000000000000000000000600052601160045260246000fd5b7f4e487b7100000000000000000000000000000000000000000000000000000000600052602260045260246000fd5b7f4e487b7100000000000000000000000000000000000000000000000000000000600052604160045260246000fd5b6000601f19601f8301169050919050565b7f4576656e7420526567697374726174696f6e20697320636c6f7365642e000000600082015250565b7f506c6561736520706179206578616374207265676973726174696f6e2066656560008201527f2e00000000000000000000000000000000000000000000000000000000000000602082015250565b7f546869732066756e6374696f6e206973207265737472696374656420746f207460008201527f686520636f6e747261637427732061646d696e00000000000000000000000000602082015250565b611428816111cd565b811461143357600080fd5b50565b61143f8161120b565b811461144a57600080fd5b5056fea2646970667358221220d49b2045515daa78872ebdffce09e110b652a16fba4b439a6e837ca1f80fb15564736f6c63430008040033",
  "linkReferences": {},
  "deployedLinkReferences": {}
}