{
  "_format": "hh-sol-artifact-1",
  "contractName": "EventRegstration",
  "sourceName": "contracts/EventRegistration.sol",
  "abi": [
    {
      "anonymous": false,
      "inputs": [
        {
          "indexed": false,
          "internalType": "uint256",
          "name": "_eventRegistrationClosedAt",
          "type": "uint256"
        }
      ],
      "name": "eventClosed",
      "type": "event"
    },
    {
      "anonymous": false,
      "inputs": [
        {
          "indexed": false,
          "internalType": "string",
          "name": "_name",
          "type": "string"
        },
        {
          "indexed": false,
          "internalType": "string",
          "name": "_date",
          "type": "string"
        },
        {
          "indexed": false,
          "internalType": "string",
          "name": "_time",
          "type": "string"
        },
        {
          "indexed": false,
          "internalType": "uint256",
          "name": "_fees",
          "type": "uint256"
        }
      ],
      "name": "eventDetailsUpdated",
      "type": "event"
    },
    {
      "anonymous": false,
      "inputs": [
        {
          "indexed": false,
          "internalType": "address",
          "name": "_accountAddress",
          "type": "address"
        },
        {
          "indexed": false,
          "internalType": "uint256",
          "name": "_id",
          "type": "uint256"
        },
        {
          "indexed": false,
          "internalType": "uint256",
          "name": "_registrationDateTime",
          "type": "uint256"
        },
        {
          "indexed": false,
          "internalType": "string",
          "name": "_name",
          "type": "string"
        },
        {
          "indexed": false,
          "internalType": "string",
          "name": "_email",
          "type": "string"
        },
        {
          "indexed": false,
          "internalType": "string",
          "name": "_phone",
          "type": "string"
        }
      ],
      "name": "registrationSuccess",
      "type": "event"
    },
    {
      "inputs": [],
      "name": "closeEventRegistration",
      "outputs": [],
      "stateMutability": "payable",
      "type": "function"
    },
    {
      "inputs": [],
      "name": "eventDate",
      "outputs": [
        {
          "internalType": "string",
          "name": "",
          "type": "string"
        }
      ],
      "stateMutability": "view",
      "type": "function"
    },
    {
      "inputs": [],
      "name": "eventName",
      "outputs": [
        {
          "internalType": "string",
          "name": "",
          "type": "string"
        }
      ],
      "stateMutability": "view",
      "type": "function"
    },
    {
      "inputs": [],
      "name": "eventRegistrationClosedAt",
      "outputs": [
        {
          "internalType": "uint256",
          "name": "",
          "type": "uint256"
        }
      ],
      "stateMutability": "view",
      "type": "function"
    },
    {
      "inputs": [],
      "name": "eventRegistrationFee",
      "outputs": [
        {
          "internalType": "uint256",
          "name": "",
          "type": "uint256"
        }
      ],
      "stateMutability": "view",
      "type": "function"
    },
    {
      "inputs": [],
      "name": "eventTime",
      "outputs": [
        {
          "internalType": "string",
          "name": "",
          "type": "string"
        }
      ],
      "stateMutability": "view",
      "type": "function"
    },
    {
      "inputs": [],
      "name": "isEventRegistrationClosed",
      "outputs": [
        {
          "internalType": "bool",
          "name": "",
          "type": "bool"
        }
      ],
      "stateMutability": "view",
      "type": "function"
    },
    {
      "inputs": [],
      "name": "owner",
      "outputs": [
        {
          "internalType": "address",
          "name": "",
          "type": "address"
        }
      ],
      "stateMutability": "view",
      "type": "function"
    },
    {
      "inputs": [
        {
          "internalType": "address",
          "name": "",
          "type": "address"
        }
      ],
      "name": "registeredUsers",
      "outputs": [
        {
          "internalType": "uint256",
          "name": "id",
          "type": "uint256"
        },
        {
          "internalType": "string",
          "name": "name",
          "type": "string"
        },
        {
          "internalType": "string",
          "name": "email",
          "type": "string"
        },
        {
          "internalType": "string",
          "name": "phone",
          "type": "string"
        },
        {
          "internalType": "uint256",
          "name": "paidFees",
          "type": "uint256"
        },
        {
          "internalType": "uint256",
          "name": "registrationDateTime",
          "type": "uint256"
        }
      ],
      "stateMutability": "view",
      "type": "function"
    },
    {
      "inputs": [
        {
          "internalType": "string",
          "name": "_name",
          "type": "string"
        },
        {
          "internalType": "string",
          "name": "_email",
          "type": "string"
        },
        {
          "internalType": "string",
          "name": "_phone",
          "type": "string"
        }
      ],
      "name": "registration",
      "outputs": [],
      "stateMutability": "payable",
      "type": "function"
    },
    {
      "inputs": [],
      "name": "totalReceivedFee",
      "outputs": [
        {
          "internalType": "uint256",
          "name": "",
          "type": "uint256"
        }
      ],
      "stateMutability": "view",
      "type": "function"
    },
    {
      "inputs": [],
      "name": "totalRegisteredUsers",
      "outputs": [
        {
          "internalType": "uint256",
          "name": "",
          "type": "uint256"
        }
      ],
      "stateMutability": "view",
      "type": "function"
    },
    {
      "inputs": [
        {
          "internalType": "string",
          "name": "_eventName",
          "type": "string"
        },
        {
          "internalType": "string",
          "name": "_eventDate",
          "type": "string"
        },
        {
          "internalType": "string",
          "name": "_eventTime",
          "type": "string"
        },
        {
          "internalType": "uint256",
          "name": "_eventRegistrationFee",
          "type": "uint256"
        }
      ],
      "name": "updateEventDetails",
      "outputs": [],
      "stateMutability": "nonpayable",
      "type": "function"
    }
  ],
  "bytecode": "0x60806040526040518060400160405280601281526020017f426c6f636b436861696e20576562696e61720000000000000000000000000000815250600090805190602001906200005192919062000174565b506040518060400160405280600a81526020017f323032322d30362d313200000000000000000000000000000000000000000000815250600190805190602001906200009f92919062000174565b506040518060400160405280600581526020017f31343a303000000000000000000000000000000000000000000000000000000081525060029080519060200190620000ed92919062000174565b506706f05b59d3b200006003556000600460146101000a81548160ff021916908315150217905550600060065560006007553480156200012c57600080fd5b5033600460006101000a81548173ffffffffffffffffffffffffffffffffffffffff021916908373ffffffffffffffffffffffffffffffffffffffff16021790555062000289565b828054620001829062000224565b90600052602060002090601f016020900481019282620001a65760008555620001f2565b82601f10620001c157805160ff1916838001178555620001f2565b82800160010185558215620001f2579182015b82811115620001f1578251825591602001919060010190620001d4565b5b50905062000201919062000205565b5090565b5b808211156200022057600081600090555060010162000206565b5090565b600060028204905060018216806200023d57607f821691505b602082108114156200025457620002536200025a565b5b50919050565b7f4e487b7100000000000000000000000000000000000000000000000000000000600052602260045260246000fd5b61146680620002996000396000f3fe6080604052600436106100c25760003560e01c80634bfbe5df1161007f5780638da5cb5b116100595780638da5cb5b1461022f5780639092fa261461025a578063e9d7f20f14610285578063f5341856146102b0576100c2565b80634bfbe5df146101ae5780635fc74e3f146101d95780638043c9c014610204576100c2565b80630753afdf146100c75780630c317e7b146100e35780630e50cee51461010e578063126d494a146101505780633c7afca51461015a578063457f570b14610185575b600080fd5b6100e160048036038101906100dc9190610c8a565b6102db565b005b3480156100ef57600080fd5b506100f86104e8565b6040516101059190610f47565b60405180910390f35b34801561011a57600080fd5b5061013560048036038101906101309190610c61565b610576565b6040516101479695949392919061103e565b60405180910390f35b61015861074a565b005b34801561016657600080fd5b5061016f6108a0565b60405161017c9190611023565b60405180910390f35b34801561019157600080fd5b506101ac60048036038101906101a79190610d21565b6108a6565b005b3480156101ba57600080fd5b506101c36109c5565b6040516101d09190610f47565b60405180910390f35b3480156101e557600080fd5b506101ee610a53565b6040516101fb9190611023565b60405180910390f35b34801561021057600080fd5b50610219610a59565b6040516102269190610f47565b60405180910390f35b34801561023b57600080fd5b50610244610ae7565b6040516102519190610e9b565b60405180910390f35b34801561026657600080fd5b5061026f610b0d565b60405161027c9190611023565b60405180910390f35b34801561029157600080fd5b5061029a610b13565b6040516102a79190611023565b60405180910390f35b3480156102bc57600080fd5b506102c5610b19565b6040516102d29190610f2c565b60405180910390f35b60001515600460149054906101000a900460ff16151514610331576040517f08c379a000000000000000000000000000000000000000000000000000000000815260040161032890610fc3565b60405180910390fd5b6003543414610375576040517f08c379a000000000000000000000000000000000000000000000000000000000815260040161036c90610fe3565b60405180910390fd5b60004290506040518060c00160405280600654815260200185815260200184815260200183815260200134815260200182815250600860003373ffffffffffffffffffffffffffffffffffffffff1673ffffffffffffffffffffffffffffffffffffffff16815260200190815260200160002060008201518160000155602082015181600101908051906020019061040e929190610b2c565b50604082015181600201908051906020019061042b929190610b2c565b506060820151816003019080519060200190610448929190610b2c565b506080820151816004015560a082015181600501559050506001600660008282546104739190611126565b92505081905550346007600082825461048c9190611126565b925050819055507f850ca46b1338e2f0af3727e0c33c13f9891e1d586a28dc5eb132ba545dd686ec3360016006546104c4919061117c565b838787876040516104da96959493929190610eb6565b60405180910390a150505050565b600280546104f59061123a565b80601f01602080910402602001604051908101604052809291908181526020018280546105219061123a565b801561056e5780601f106105435761010080835404028352916020019161056e565b820191906000526020600020905b81548152906001019060200180831161055157829003601f168201915b505050505081565b600860205280600052604060002060009150905080600001549080600101805461059f9061123a565b80601f01602080910402602001604051908101604052809291908181526020018280546105cb9061123a565b80156106185780601f106105ed57610100808354040283529160200191610618565b820191906000526020600020905b8154815290600101906020018083116105fb57829003601f168201915b50505050509080600201805461062d9061123a565b80601f01602080910402602001604051908101604052809291908181526020018280546106599061123a565b80156106a65780601f1061067b576101008083540402835291602001916106a6565b820191906000526020600020905b81548152906001019060200180831161068957829003601f168201915b5050505050908060030180546106bb9061123a565b80601f01602080910402602001604051908101604052809291908181526020018280546106e79061123a565b80156107345780601f1061070957610100808354040283529160200191610734565b820191906000526020600020905b81548152906001019060200180831161071757829003601f168201915b5050505050908060040154908060050154905086565b600460009054906101000a900473ffffffffffffffffffffffffffffffffffffffff1673ffffffffffffffffffffffffffffffffffffffff163373ffffffffffffffffffffffffffffffffffffffff16146107da576040517f08c379a00000000000000000000000000000000000000000000000000000000081526004016107d190611003565b60405180910390fd5b600460009054906101000a900473ffffffffffffffffffffffffffffffffffffffff1673ffffffffffffffffffffffffffffffffffffffff166108fc479081150290604051600060405180830381858888f19350505050158015610842573d6000803e3d6000fd5b506001600460146101000a81548160ff021916908315150217905550426005819055507f86d7ce8cea57acc6b1c4bf7a21bf2a3912df0a60072ec4f1323c270720b6f1a96005546040516108969190611023565b60405180910390a1565b60065481565b600460009054906101000a900473ffffffffffffffffffffffffffffffffffffffff1673ffffffffffffffffffffffffffffffffffffffff163373ffffffffffffffffffffffffffffffffffffffff1614610936576040517f08c379a000000000000000000000000000000000000000000000000000000000815260040161092d90611003565b60405180910390fd5b836000908051906020019061094c929190610b2c565b508260019080519060200190610963929190610b2c565b50816002908051906020019061097a929190610b2c565b50806003819055507f8c86e125c4a298063cb5bdc8b220d96de074d9cca51117841686be3349ece8cd848484846040516109b79493929190610f69565b60405180910390a150505050565b600180546109d29061123a565b80601f01602080910402602001604051908101604052809291908181526020018280546109fe9061123a565b8015610a4b5780601f10610a2057610100808354040283529160200191610a4b565b820191906000526020600020905b815481529060010190602001808311610a2e57829003601f168201915b505050505081565b60055481565b60008054610a669061123a565b80601f0160208091040260200160405190810160405280929190818152602001828054610a929061123a565b8015610adf5780601f10610ab457610100808354040283529160200191610adf565b820191906000526020600020905b815481529060010190602001808311610ac257829003601f168201915b505050505081565b600460009054906101000a900473ffffffffffffffffffffffffffffffffffffffff1681565b60075481565b60035481565b600460149054906101000a900460ff1681565b828054610b389061123a565b90600052602060002090601f016020900481019282610b5a5760008555610ba1565b82601f10610b7357805160ff1916838001178555610ba1565b82800160010185558215610ba1579182015b82811115610ba0578251825591602001919060010190610b85565b5b509050610bae9190610bb2565b5090565b5b80821115610bcb576000816000905550600101610bb3565b5090565b6000610be2610bdd846110d9565b6110b4565b905082815260208101848484011115610bfa57600080fd5b610c058482856111f8565b509392505050565b600081359050610c1c81611402565b92915050565b600082601f830112610c3357600080fd5b8135610c43848260208601610bcf565b91505092915050565b600081359050610c5b81611419565b92915050565b600060208284031215610c7357600080fd5b6000610c8184828501610c0d565b91505092915050565b600080600060608486031215610c9f57600080fd5b600084013567ffffffffffffffff811115610cb957600080fd5b610cc586828701610c22565b935050602084013567ffffffffffffffff811115610ce257600080fd5b610cee86828701610c22565b925050604084013567ffffffffffffffff811115610d0b57600080fd5b610d1786828701610c22565b9150509250925092565b60008060008060808587031215610d3757600080fd5b600085013567ffffffffffffffff811115610d5157600080fd5b610d5d87828801610c22565b945050602085013567ffffffffffffffff811115610d7a57600080fd5b610d8687828801610c22565b935050604085013567ffffffffffffffff811115610da357600080fd5b610daf87828801610c22565b9250506060610dc087828801610c4c565b91505092959194509250565b610dd5816111b0565b82525050565b610de4816111c2565b82525050565b6000610df58261110a565b610dff8185611115565b9350610e0f818560208601611207565b610e188161132a565b840191505092915050565b6000610e30601d83611115565b9150610e3b8261133b565b602082019050919050565b6000610e53602183611115565b9150610e5e82611364565b604082019050919050565b6000610e76603383611115565b9150610e81826113b3565b604082019050919050565b610e95816111ee565b82525050565b6000602082019050610eb06000830184610dcc565b92915050565b600060c082019050610ecb6000830189610dcc565b610ed86020830188610e8c565b610ee56040830187610e8c565b8181036060830152610ef78186610dea565b90508181036080830152610f0b8185610dea565b905081810360a0830152610f1f8184610dea565b9050979650505050505050565b6000602082019050610f416000830184610ddb565b92915050565b60006020820190508181036000830152610f618184610dea565b905092915050565b60006080820190508181036000830152610f838187610dea565b90508181036020830152610f978186610dea565b90508181036040830152610fab8185610dea565b9050610fba6060830184610e8c565b95945050505050565b60006020820190508181036000830152610fdc81610e23565b9050919050565b60006020820190508181036000830152610ffc81610e46565b9050919050565b6000602082019050818103600083015261101c81610e69565b9050919050565b60006020820190506110386000830184610e8c565b92915050565b600060c0820190506110536000830189610e8c565b81810360208301526110658188610dea565b905081810360408301526110798187610dea565b9050818103606083015261108d8186610dea565b905061109c6080830185610e8c565b6110a960a0830184610e8c565b979650505050505050565b60006110be6110cf565b90506110ca828261126c565b919050565b6000604051905090565b600067ffffffffffffffff8211156110f4576110f36112fb565b5b6110fd8261132a565b9050602081019050919050565b600081519050919050565b600082825260208201905092915050565b6000611131826111ee565b915061113c836111ee565b9250827fffffffffffffffffffffffffffffffffffffffffffffffffffffffffffffffff038211156111715761117061129d565b5b828201905092915050565b6000611187826111ee565b9150611192836111ee565b9250828210156111a5576111a461129d565b5b828203905092915050565b60006111bb826111ce565b9050919050565b60008115159050919050565b600073ffffffffffffffffffffffffffffffffffffffff82169050919050565b6000819050919050565b82818337600083830152505050565b60005b8381101561122557808201518184015260208101905061120a565b83811115611234576000848401525b50505050565b6000600282049050600182168061125257607f821691505b60208210811415611266576112656112cc565b5b50919050565b6112758261132a565b810181811067ffffffffffffffff82111715611294576112936112fb565b5b80604052505050565b7f4e487b7100000000000000000000000000000000000000000000000000000000600052601160045260246000fd5b7f4e487b7100000000000000000000000000000000000000000000000000000000600052602260045260246000fd5b7f4e487b7100000000000000000000000000000000000000000000000000000000600052604160045260246000fd5b6000601f19601f8301169050919050565b7f4576656e7420526567697374726174696f6e20697320636c6f7365642e000000600082015250565b7f506c6561736520706179206578616374207265676973726174696f6e2066656560008201527f2e00000000000000000000000000000000000000000000000000000000000000602082015250565b7f546869732066756e6374696f6e206973207265737472696374656420746f207460008201527f686520636f6e747261637427732061646d696e00000000000000000000000000602082015250565b61140b816111b0565b811461141657600080fd5b50565b611422816111ee565b811461142d57600080fd5b5056fea2646970667358221220adf3d26d2743ca0508277bff39db988abb22f4b90202709da925c84c765c370364736f6c63430008040033",
  "linkReferences": {},
  "deployedLinkReferences": {}
}