{
  "_format": "hh-sol-artifact-1",
  "contractName": "EventRegstration",
  "sourceName": "contracts/EventRegistration.sol",
  "abi": [
    {
      "anonymous": false,
      "inputs": [
        {
          "indexed": false,
          "internalType": "uint256",
          "name": "_eventRegistrationClosedAt",
          "type": "uint256"
        }
      ],
      "name": "eventClosed",
      "type": "event"
    },
    {
      "anonymous": false,
      "inputs": [
        {
          "indexed": false,
          "internalType": "string",
          "name": "_name",
          "type": "string"
        },
        {
          "indexed": false,
          "internalType": "string",
          "name": "_date",
          "type": "string"
        },
        {
          "indexed": false,
          "internalType": "string",
          "name": "_time",
          "type": "string"
        },
        {
          "indexed": false,
          "internalType": "uint256",
          "name": "_fees",
          "type": "uint256"
        }
      ],
      "name": "eventDetailsUpdated",
      "type": "event"
    },
    {
      "anonymous": false,
      "inputs": [
        {
          "indexed": false,
          "internalType": "address",
          "name": "_accountAddress",
          "type": "address"
        },
        {
          "indexed": false,
          "internalType": "uint256",
          "name": "_id",
          "type": "uint256"
        },
        {
          "indexed": false,
          "internalType": "uint256",
          "name": "_registrationDateTime",
          "type": "uint256"
        },
        {
          "indexed": false,
          "internalType": "string",
          "name": "_name",
          "type": "string"
        },
        {
          "indexed": false,
          "internalType": "string",
          "name": "_email",
          "type": "string"
        },
        {
          "indexed": false,
          "internalType": "string",
          "name": "_phone",
          "type": "string"
        },
        {
          "indexed": false,
          "internalType": "uint256",
          "name": "fees",
          "type": "uint256"
        }
      ],
      "name": "registrationSuccess",
      "type": "event"
    },
    {
      "inputs": [],
      "name": "closeEventRegistration",
      "outputs": [],
      "stateMutability": "nonpayable",
      "type": "function"
    },
    {
      "inputs": [],
      "name": "eventDate",
      "outputs": [
        {
          "internalType": "string",
          "name": "",
          "type": "string"
        }
      ],
      "stateMutability": "view",
      "type": "function"
    },
    {
      "inputs": [],
      "name": "eventName",
      "outputs": [
        {
          "internalType": "string",
          "name": "",
          "type": "string"
        }
      ],
      "stateMutability": "view",
      "type": "function"
    },
    {
      "inputs": [],
      "name": "eventRegistrationClosedAt",
      "outputs": [
        {
          "internalType": "uint256",
          "name": "",
          "type": "uint256"
        }
      ],
      "stateMutability": "view",
      "type": "function"
    },
    {
      "inputs": [],
      "name": "eventRegistrationFee",
      "outputs": [
        {
          "internalType": "uint256",
          "name": "",
          "type": "uint256"
        }
      ],
      "stateMutability": "view",
      "type": "function"
    },
    {
      "inputs": [],
      "name": "eventTime",
      "outputs": [
        {
          "internalType": "string",
          "name": "",
          "type": "string"
        }
      ],
      "stateMutability": "view",
      "type": "function"
    },
    {
      "inputs": [],
      "name": "isEventRegistrationClosed",
      "outputs": [
        {
          "internalType": "bool",
          "name": "",
          "type": "bool"
        }
      ],
      "stateMutability": "view",
      "type": "function"
    },
    {
      "inputs": [],
      "name": "owner",
      "outputs": [
        {
          "internalType": "address",
          "name": "",
          "type": "address"
        }
      ],
      "stateMutability": "view",
      "type": "function"
    },
    {
      "inputs": [
        {
          "internalType": "uint256",
          "name": "",
          "type": "uint256"
        }
      ],
      "name": "registeredAddress",
      "outputs": [
        {
          "internalType": "address",
          "name": "",
          "type": "address"
        }
      ],
      "stateMutability": "view",
      "type": "function"
    },
    {
      "inputs": [
        {
          "internalType": "address",
          "name": "",
          "type": "address"
        }
      ],
      "name": "registeredUsers",
      "outputs": [
        {
          "internalType": "uint256",
          "name": "id",
          "type": "uint256"
        },
        {
          "internalType": "string",
          "name": "name",
          "type": "string"
        },
        {
          "internalType": "string",
          "name": "email",
          "type": "string"
        },
        {
          "internalType": "string",
          "name": "phone",
          "type": "string"
        },
        {
          "internalType": "uint256",
          "name": "paidFees",
          "type": "uint256"
        },
        {
          "internalType": "uint256",
          "name": "registrationDateTime",
          "type": "uint256"
        }
      ],
      "stateMutability": "view",
      "type": "function"
    },
    {
      "inputs": [
        {
          "internalType": "string",
          "name": "_name",
          "type": "string"
        },
        {
          "internalType": "string",
          "name": "_email",
          "type": "string"
        },
        {
          "internalType": "string",
          "name": "_phone",
          "type": "string"
        }
      ],
      "name": "registration",
      "outputs": [],
      "stateMutability": "payable",
      "type": "function"
    },
    {
      "inputs": [],
      "name": "totalReceivedFee",
      "outputs": [
        {
          "internalType": "uint256",
          "name": "",
          "type": "uint256"
        }
      ],
      "stateMutability": "view",
      "type": "function"
    },
    {
      "inputs": [],
      "name": "totalRegisteredUsers",
      "outputs": [
        {
          "internalType": "uint256",
          "name": "",
          "type": "uint256"
        }
      ],
      "stateMutability": "view",
      "type": "function"
    },
    {
      "inputs": [
        {
          "internalType": "string",
          "name": "_eventName",
          "type": "string"
        },
        {
          "internalType": "string",
          "name": "_eventDate",
          "type": "string"
        },
        {
          "internalType": "string",
          "name": "_eventTime",
          "type": "string"
        },
        {
          "internalType": "uint256",
          "name": "_eventRegistrationFee",
          "type": "uint256"
        }
      ],
      "name": "updateEventDetails",
      "outputs": [],
      "stateMutability": "nonpayable",
      "type": "function"
    }
  ],
  "bytecode": "0x60806040526040518060400160405280601281526020017f426c6f636b436861696e20576562696e61720000000000000000000000000000815250600090805190602001906200005192919062000174565b506040518060400160405280600a81526020017f323032322d30362d313200000000000000000000000000000000000000000000815250600190805190602001906200009f92919062000174565b506040518060400160405280600581526020017f31343a303000000000000000000000000000000000000000000000000000000081525060029080519060200190620000ed92919062000174565b506706f05b59d3b200006003556000600460146101000a81548160ff021916908315150217905550600060065560006007553480156200012c57600080fd5b5033600460006101000a81548173ffffffffffffffffffffffffffffffffffffffff021916908373ffffffffffffffffffffffffffffffffffffffff16021790555062000289565b828054620001829062000224565b90600052602060002090601f016020900481019282620001a65760008555620001f2565b82601f10620001c157805160ff1916838001178555620001f2565b82800160010185558215620001f2579182015b82811115620001f1578251825591602001919060010190620001d4565b5b50905062000201919062000205565b5090565b5b808211156200022057600081600090555060010162000206565b5090565b600060028204905060018216806200023d57607f821691505b602082108114156200025457620002536200025a565b5b50919050565b7f4e487b7100000000000000000000000000000000000000000000000000000000600052602260045260246000fd5b61168c80620002996000396000f3fe6080604052600436106100dd5760003560e01c80635fc74e3f1161007f5780638da5cb5b116100595780638da5cb5b146102945780639092fa26146102bf578063e9d7f20f146102ea578063f534185614610315576100dd565b80635fc74e3f146102015780637489f0851461022c5780638043c9c014610269576100dd565b8063126d494a116100bb578063126d494a1461016b5780633c7afca514610182578063457f570b146101ad5780634bfbe5df146101d6576100dd565b80630753afdf146100e25780630c317e7b146100fe5780630e50cee514610129575b600080fd5b6100fc60048036038101906100f79190610e0d565b610340565b005b34801561010a57600080fd5b50610113610628565b6040516101209190611124565b60405180910390f35b34801561013557600080fd5b50610150600480360381019061014b9190610de4565b6106b6565b6040516101629695949392919061123b565b60405180910390f35b34801561017757600080fd5b5061018061088a565b005b34801561018e57600080fd5b506101976109f0565b6040516101a49190611220565b60405180910390f35b3480156101b957600080fd5b506101d460048036038101906101cf9190610ea4565b6109f6565b005b3480156101e257600080fd5b506101eb610b15565b6040516101f89190611124565b60405180910390f35b34801561020d57600080fd5b50610216610ba3565b6040516102239190611220565b60405180910390f35b34801561023857600080fd5b50610253600480360381019061024e9190610f4f565b610ba9565b604051610260919061106a565b60405180910390f35b34801561027557600080fd5b5061027e610bdc565b60405161028b9190611124565b60405180910390f35b3480156102a057600080fd5b506102a9610c6a565b6040516102b6919061106a565b60405180910390f35b3480156102cb57600080fd5b506102d4610c90565b6040516102e19190611220565b60405180910390f35b3480156102f657600080fd5b506102ff610c96565b60405161030c9190611220565b60405180910390f35b34801561032157600080fd5b5061032a610c9c565b6040516103379190611109565b60405180910390f35b6000600960003373ffffffffffffffffffffffffffffffffffffffff1673ffffffffffffffffffffffffffffffffffffffff16815260200190815260200160002060050154146103c5576040517f08c379a00000000000000000000000000000000000000000000000000000000081526004016103bc906111c0565b60405180910390fd5b60001515600460149054906101000a900460ff1615151461041b576040517f08c379a0000000000000000000000000000000000000000000000000000000008152600401610412906111a0565b60405180910390fd5b600354341461045f576040517f08c379a0000000000000000000000000000000000000000000000000000000008152600401610456906111e0565b60405180910390fd5b60004290503360086000600654815260200190815260200160002060006101000a81548173ffffffffffffffffffffffffffffffffffffffff021916908373ffffffffffffffffffffffffffffffffffffffff1602179055506040518060c00160405280600654815260200185815260200184815260200183815260200134815260200182815250600960003373ffffffffffffffffffffffffffffffffffffffff1673ffffffffffffffffffffffffffffffffffffffff16815260200190815260200160002060008201518160000155602082015181600101908051906020019061054c929190610caf565b506040820151816002019080519060200190610569929190610caf565b506060820151816003019080519060200190610586929190610caf565b506080820151816004015560a082015181600501559050506001600660008282546105b19190611323565b9250508190555034600760008282546105ca9190611323565b925050819055507fc44812dc30b3c6959534776cbda5882b875296456bcb3229aff6b3e316541a343360016006546106029190611379565b838787873460405161061a9796959493929190611085565b60405180910390a150505050565b6002805461063590611437565b80601f016020809104026020016040519081016040528092919081815260200182805461066190611437565b80156106ae5780601f10610683576101008083540402835291602001916106ae565b820191906000526020600020905b81548152906001019060200180831161069157829003601f168201915b505050505081565b60096020528060005260406000206000915090508060000154908060010180546106df90611437565b80601f016020809104026020016040519081016040528092919081815260200182805461070b90611437565b80156107585780601f1061072d57610100808354040283529160200191610758565b820191906000526020600020905b81548152906001019060200180831161073b57829003601f168201915b50505050509080600201805461076d90611437565b80601f016020809104026020016040519081016040528092919081815260200182805461079990611437565b80156107e65780601f106107bb576101008083540402835291602001916107e6565b820191906000526020600020905b8154815290600101906020018083116107c957829003601f168201915b5050505050908060030180546107fb90611437565b80601f016020809104026020016040519081016040528092919081815260200182805461082790611437565b80156108745780601f1061084957610100808354040283529160200191610874565b820191906000526020600020905b81548152906001019060200180831161085757829003601f168201915b5050505050908060040154908060050154905086565b600460009054906101000a900473ffffffffffffffffffffffffffffffffffffffff1673ffffffffffffffffffffffffffffffffffffffff163373ffffffffffffffffffffffffffffffffffffffff161461091a576040517f08c379a000000000000000000000000000000000000000000000000000000000815260040161091190611200565b60405180910390fd5b6000479050600081111561099257600460009054906101000a900473ffffffffffffffffffffffffffffffffffffffff1673ffffffffffffffffffffffffffffffffffffffff166108fc829081150290604051600060405180830381858888f19350505050158015610990573d6000803e3d6000fd5b505b6001600460146101000a81548160ff021916908315150217905550426005819055507f86d7ce8cea57acc6b1c4bf7a21bf2a3912df0a60072ec4f1323c270720b6f1a96005546040516109e59190611220565b60405180910390a150565b60065481565b600460009054906101000a900473ffffffffffffffffffffffffffffffffffffffff1673ffffffffffffffffffffffffffffffffffffffff163373ffffffffffffffffffffffffffffffffffffffff1614610a86576040517f08c379a0000000000000000000000000000000000000000000000000000000008152600401610a7d90611200565b60405180910390fd5b8360009080519060200190610a9c929190610caf565b508260019080519060200190610ab3929190610caf565b508160029080519060200190610aca929190610caf565b50806003819055507f8c86e125c4a298063cb5bdc8b220d96de074d9cca51117841686be3349ece8cd84848484604051610b079493929190611146565b60405180910390a150505050565b60018054610b2290611437565b80601f0160208091040260200160405190810160405280929190818152602001828054610b4e90611437565b8015610b9b5780601f10610b7057610100808354040283529160200191610b9b565b820191906000526020600020905b815481529060010190602001808311610b7e57829003601f168201915b505050505081565b60055481565b60086020528060005260406000206000915054906101000a900473ffffffffffffffffffffffffffffffffffffffff1681565b60008054610be990611437565b80601f0160208091040260200160405190810160405280929190818152602001828054610c1590611437565b8015610c625780601f10610c3757610100808354040283529160200191610c62565b820191906000526020600020905b815481529060010190602001808311610c4557829003601f168201915b505050505081565b600460009054906101000a900473ffffffffffffffffffffffffffffffffffffffff1681565b60075481565b60035481565b600460149054906101000a900460ff1681565b828054610cbb90611437565b90600052602060002090601f016020900481019282610cdd5760008555610d24565b82601f10610cf657805160ff1916838001178555610d24565b82800160010185558215610d24579182015b82811115610d23578251825591602001919060010190610d08565b5b509050610d319190610d35565b5090565b5b80821115610d4e576000816000905550600101610d36565b5090565b6000610d65610d60846112d6565b6112b1565b905082815260208101848484011115610d7d57600080fd5b610d888482856113f5565b509392505050565b600081359050610d9f81611628565b92915050565b600082601f830112610db657600080fd5b8135610dc6848260208601610d52565b91505092915050565b600081359050610dde8161163f565b92915050565b600060208284031215610df657600080fd5b6000610e0484828501610d90565b91505092915050565b600080600060608486031215610e2257600080fd5b600084013567ffffffffffffffff811115610e3c57600080fd5b610e4886828701610da5565b935050602084013567ffffffffffffffff811115610e6557600080fd5b610e7186828701610da5565b925050604084013567ffffffffffffffff811115610e8e57600080fd5b610e9a86828701610da5565b9150509250925092565b60008060008060808587031215610eba57600080fd5b600085013567ffffffffffffffff811115610ed457600080fd5b610ee087828801610da5565b945050602085013567ffffffffffffffff811115610efd57600080fd5b610f0987828801610da5565b935050604085013567ffffffffffffffff811115610f2657600080fd5b610f3287828801610da5565b9250506060610f4387828801610dcf565b91505092959194509250565b600060208284031215610f6157600080fd5b6000610f6f84828501610dcf565b91505092915050565b610f81816113ad565b82525050565b610f90816113bf565b82525050565b6000610fa182611307565b610fab8185611312565b9350610fbb818560208601611404565b610fc481611527565b840191505092915050565b6000610fdc601d83611312565b9150610fe782611538565b602082019050919050565b6000610fff601783611312565b915061100a82611561565b602082019050919050565b6000611022602183611312565b915061102d8261158a565b604082019050919050565b6000611045603383611312565b9150611050826115d9565b604082019050919050565b611064816113eb565b82525050565b600060208201905061107f6000830184610f78565b92915050565b600060e08201905061109a600083018a610f78565b6110a7602083018961105b565b6110b4604083018861105b565b81810360608301526110c68187610f96565b905081810360808301526110da8186610f96565b905081810360a08301526110ee8185610f96565b90506110fd60c083018461105b565b98975050505050505050565b600060208201905061111e6000830184610f87565b92915050565b6000602082019050818103600083015261113e8184610f96565b905092915050565b600060808201905081810360008301526111608187610f96565b905081810360208301526111748186610f96565b905081810360408301526111888185610f96565b9050611197606083018461105b565b95945050505050565b600060208201905081810360008301526111b981610fcf565b9050919050565b600060208201905081810360008301526111d981610ff2565b9050919050565b600060208201905081810360008301526111f981611015565b9050919050565b6000602082019050818103600083015261121981611038565b9050919050565b6000602082019050611235600083018461105b565b92915050565b600060c082019050611250600083018961105b565b81810360208301526112628188610f96565b905081810360408301526112768187610f96565b9050818103606083015261128a8186610f96565b9050611299608083018561105b565b6112a660a083018461105b565b979650505050505050565b60006112bb6112cc565b90506112c78282611469565b919050565b6000604051905090565b600067ffffffffffffffff8211156112f1576112f06114f8565b5b6112fa82611527565b9050602081019050919050565b600081519050919050565b600082825260208201905092915050565b600061132e826113eb565b9150611339836113eb565b9250827fffffffffffffffffffffffffffffffffffffffffffffffffffffffffffffffff0382111561136e5761136d61149a565b5b828201905092915050565b6000611384826113eb565b915061138f836113eb565b9250828210156113a2576113a161149a565b5b828203905092915050565b60006113b8826113cb565b9050919050565b60008115159050919050565b600073ffffffffffffffffffffffffffffffffffffffff82169050919050565b6000819050919050565b82818337600083830152505050565b60005b83811015611422578082015181840152602081019050611407565b83811115611431576000848401525b50505050565b6000600282049050600182168061144f57607f821691505b60208210811415611463576114626114c9565b5b50919050565b61147282611527565b810181811067ffffffffffffffff82111715611491576114906114f8565b5b80604052505050565b7f4e487b7100000000000000000000000000000000000000000000000000000000600052601160045260246000fd5b7f4e487b7100000000000000000000000000000000000000000000000000000000600052602260045260246000fd5b7f4e487b7100000000000000000000000000000000000000000000000000000000600052604160045260246000fd5b6000601f19601f8301169050919050565b7f4576656e7420526567697374726174696f6e20697320636c6f7365642e000000600082015250565b7f596f7520616c726561647920726567697374657265642e000000000000000000600082015250565b7f506c6561736520706179206578616374207265676973726174696f6e2066656560008201527f2e00000000000000000000000000000000000000000000000000000000000000602082015250565b7f546869732066756e6374696f6e206973207265737472696374656420746f207460008201527f686520636f6e747261637427732061646d696e00000000000000000000000000602082015250565b611631816113ad565b811461163c57600080fd5b50565b611648816113eb565b811461165357600080fd5b5056fea26469706673582212203d1153cdf1ace70318389ffb5fc671f9cb30e8b10e08ac57816aee15b757a3e164736f6c63430008040033",
  "linkReferences": {},
  "deployedLinkReferences": {}
}