{
  "_format": "hh-sol-artifact-1",
  "contractName": "Event",
  "sourceName": "contracts/Event.sol",
  "abi": [
    {
      "inputs": [],
      "stateMutability": "nonpayable",
      "type": "constructor"
    },
    {
      "anonymous": false,
      "inputs": [
        {
          "indexed": false,
          "internalType": "uint256",
          "name": "_eventRegistrationClosedAt",
          "type": "uint256"
        }
      ],
      "name": "eventClosed",
      "type": "event"
    },
    {
      "anonymous": false,
      "inputs": [
        {
          "indexed": false,
          "internalType": "string",
          "name": "_name",
          "type": "string"
        },
        {
          "indexed": false,
          "internalType": "string",
          "name": "_date",
          "type": "string"
        },
        {
          "indexed": false,
          "internalType": "string",
          "name": "_time",
          "type": "string"
        },
        {
          "indexed": false,
          "internalType": "uint256",
          "name": "_fees",
          "type": "uint256"
        }
      ],
      "name": "eventDetailsUpdated",
      "type": "event"
    },
    {
      "inputs": [],
      "name": "closeEventRegistration",
      "outputs": [],
      "stateMutability": "payable",
      "type": "function"
    },
    {
      "inputs": [],
      "name": "eventDate",
      "outputs": [
        {
          "internalType": "string",
          "name": "",
          "type": "string"
        }
      ],
      "stateMutability": "view",
      "type": "function"
    },
    {
      "inputs": [],
      "name": "eventName",
      "outputs": [
        {
          "internalType": "string",
          "name": "",
          "type": "string"
        }
      ],
      "stateMutability": "view",
      "type": "function"
    },
    {
      "inputs": [],
      "name": "eventRegistrationClosedAt",
      "outputs": [
        {
          "internalType": "uint256",
          "name": "",
          "type": "uint256"
        }
      ],
      "stateMutability": "view",
      "type": "function"
    },
    {
      "inputs": [],
      "name": "eventRegistrationFee",
      "outputs": [
        {
          "internalType": "uint256",
          "name": "",
          "type": "uint256"
        }
      ],
      "stateMutability": "view",
      "type": "function"
    },
    {
      "inputs": [],
      "name": "eventTime",
      "outputs": [
        {
          "internalType": "string",
          "name": "",
          "type": "string"
        }
      ],
      "stateMutability": "view",
      "type": "function"
    },
    {
      "inputs": [],
      "name": "isEventRegistrationClosed",
      "outputs": [
        {
          "internalType": "bool",
          "name": "",
          "type": "bool"
        }
      ],
      "stateMutability": "view",
      "type": "function"
    },
    {
      "inputs": [],
      "name": "owner",
      "outputs": [
        {
          "internalType": "address",
          "name": "",
          "type": "address"
        }
      ],
      "stateMutability": "view",
      "type": "function"
    },
    {
      "inputs": [
        {
          "internalType": "string",
          "name": "_eventName",
          "type": "string"
        },
        {
          "internalType": "string",
          "name": "_eventDate",
          "type": "string"
        },
        {
          "internalType": "string",
          "name": "_eventTime",
          "type": "string"
        },
        {
          "internalType": "uint256",
          "name": "_eventRegistrationFee",
          "type": "uint256"
        }
      ],
      "name": "updateEventDetails",
      "outputs": [],
      "stateMutability": "nonpayable",
      "type": "function"
    }
  ],
  "bytecode": "0x60806040526040518060400160405280601281526020017f426c6f636b436861696e20576562696e6172000000000000000000000000000081525060009080519060200190620000519291906200016a565b506040518060400160405280600a81526020017f323032322d30362d313200000000000000000000000000000000000000000000815250600190805190602001906200009f9291906200016a565b506040518060400160405280600581526020017f31343a303000000000000000000000000000000000000000000000000000000081525060029080519060200190620000ed9291906200016a565b506706f05b59d3b200006003556000600460146101000a81548160ff0219169083151502179055503480156200012257600080fd5b5033600460006101000a81548173ffffffffffffffffffffffffffffffffffffffff021916908373ffffffffffffffffffffffffffffffffffffffff1602179055506200027f565b82805462000178906200021a565b90600052602060002090601f0160209004810192826200019c5760008555620001e8565b82601f10620001b757805160ff1916838001178555620001e8565b82800160010185558215620001e8579182015b82811115620001e7578251825591602001919060010190620001ca565b5b509050620001f79190620001fb565b5090565b5b8082111562000216576000816000905550600101620001fc565b5090565b600060028204905060018216806200023357607f821691505b602082108114156200024a576200024962000250565b5b50919050565b7f4e487b7100000000000000000000000000000000000000000000000000000000600052602260045260246000fd5b610bfa806200028f6000396000f3fe6080604052600436106100865760003560e01c80635fc74e3f116100595780635fc74e3f146101145780638043c9c01461013f5780638da5cb5b1461016a578063e9d7f20f14610195578063f5341856146101c057610086565b80630c317e7b1461008b578063126d494a146100b6578063457f570b146100c05780634bfbe5df146100e9575b600080fd5b34801561009757600080fd5b506100a06101eb565b6040516100ad91906108d9565b60405180910390f35b6100be610279565b005b3480156100cc57600080fd5b506100e760048036038101906100e2919061076f565b6103cf565b005b3480156100f557600080fd5b506100fe6104ee565b60405161010b91906108d9565b60405180910390f35b34801561012057600080fd5b5061012961057c565b6040516101369190610975565b60405180910390f35b34801561014b57600080fd5b50610154610582565b60405161016191906108d9565b60405180910390f35b34801561017657600080fd5b5061017f610610565b60405161018c91906108a3565b60405180910390f35b3480156101a157600080fd5b506101aa610636565b6040516101b79190610975565b60405180910390f35b3480156101cc57600080fd5b506101d561063c565b6040516101e291906108be565b60405180910390f35b600280546101f890610a8c565b80601f016020809104026020016040519081016040528092919081815260200182805461022490610a8c565b80156102715780601f1061024657610100808354040283529160200191610271565b820191906000526020600020905b81548152906001019060200180831161025457829003601f168201915b505050505081565b600460009054906101000a900473ffffffffffffffffffffffffffffffffffffffff1673ffffffffffffffffffffffffffffffffffffffff163373ffffffffffffffffffffffffffffffffffffffff1614610309576040517f08c379a000000000000000000000000000000000000000000000000000000000815260040161030090610955565b60405180910390fd5b600460009054906101000a900473ffffffffffffffffffffffffffffffffffffffff1673ffffffffffffffffffffffffffffffffffffffff166108fc479081150290604051600060405180830381858888f19350505050158015610371573d6000803e3d6000fd5b506001600460146101000a81548160ff021916908315150217905550426005819055507f86d7ce8cea57acc6b1c4bf7a21bf2a3912df0a60072ec4f1323c270720b6f1a96005546040516103c59190610975565b60405180910390a1565b600460009054906101000a900473ffffffffffffffffffffffffffffffffffffffff1673ffffffffffffffffffffffffffffffffffffffff163373ffffffffffffffffffffffffffffffffffffffff161461045f576040517f08c379a000000000000000000000000000000000000000000000000000000000815260040161045690610955565b60405180910390fd5b836000908051906020019061047592919061064f565b50826001908051906020019061048c92919061064f565b5081600290805190602001906104a392919061064f565b50806003819055507f8c86e125c4a298063cb5bdc8b220d96de074d9cca51117841686be3349ece8cd848484846040516104e094939291906108fb565b60405180910390a150505050565b600180546104fb90610a8c565b80601f016020809104026020016040519081016040528092919081815260200182805461052790610a8c565b80156105745780601f1061054957610100808354040283529160200191610574565b820191906000526020600020905b81548152906001019060200180831161055757829003601f168201915b505050505081565b60055481565b6000805461058f90610a8c565b80601f01602080910402602001604051908101604052809291908181526020018280546105bb90610a8c565b80156106085780601f106105dd57610100808354040283529160200191610608565b820191906000526020600020905b8154815290600101906020018083116105eb57829003601f168201915b505050505081565b600460009054906101000a900473ffffffffffffffffffffffffffffffffffffffff1681565b60035481565b600460149054906101000a900460ff1681565b82805461065b90610a8c565b90600052602060002090601f01602090048101928261067d57600085556106c4565b82601f1061069657805160ff19168380011785556106c4565b828001600101855582156106c4579182015b828111156106c35782518255916020019190600101906106a8565b5b5090506106d191906106d5565b5090565b5b808211156106ee5760008160009055506001016106d6565b5090565b6000610705610700846109b5565b610990565b90508281526020810184848401111561071d57600080fd5b610728848285610a4a565b509392505050565b600082601f83011261074157600080fd5b81356107518482602086016106f2565b91505092915050565b60008135905061076981610bad565b92915050565b6000806000806080858703121561078557600080fd5b600085013567ffffffffffffffff81111561079f57600080fd5b6107ab87828801610730565b945050602085013567ffffffffffffffff8111156107c857600080fd5b6107d487828801610730565b935050604085013567ffffffffffffffff8111156107f157600080fd5b6107fd87828801610730565b925050606061080e8782880161075a565b91505092959194509250565b61082381610a02565b82525050565b61083281610a14565b82525050565b6000610843826109e6565b61084d81856109f1565b935061085d818560208601610a59565b61086681610b4d565b840191505092915050565b600061087e6033836109f1565b915061088982610b5e565b604082019050919050565b61089d81610a40565b82525050565b60006020820190506108b8600083018461081a565b92915050565b60006020820190506108d36000830184610829565b92915050565b600060208201905081810360008301526108f38184610838565b905092915050565b600060808201905081810360008301526109158187610838565b905081810360208301526109298186610838565b9050818103604083015261093d8185610838565b905061094c6060830184610894565b95945050505050565b6000602082019050818103600083015261096e81610871565b9050919050565b600060208201905061098a6000830184610894565b92915050565b600061099a6109ab565b90506109a68282610abe565b919050565b6000604051905090565b600067ffffffffffffffff8211156109d0576109cf610b1e565b5b6109d982610b4d565b9050602081019050919050565b600081519050919050565b600082825260208201905092915050565b6000610a0d82610a20565b9050919050565b60008115159050919050565b600073ffffffffffffffffffffffffffffffffffffffff82169050919050565b6000819050919050565b82818337600083830152505050565b60005b83811015610a77578082015181840152602081019050610a5c565b83811115610a86576000848401525b50505050565b60006002820490506001821680610aa457607f821691505b60208210811415610ab857610ab7610aef565b5b50919050565b610ac782610b4d565b810181811067ffffffffffffffff82111715610ae657610ae5610b1e565b5b80604052505050565b7f4e487b7100000000000000000000000000000000000000000000000000000000600052602260045260246000fd5b7f4e487b7100000000000000000000000000000000000000000000000000000000600052604160045260246000fd5b6000601f19601f8301169050919050565b7f546869732066756e6374696f6e206973207265737472696374656420746f207460008201527f686520636f6e747261637427732061646d696e00000000000000000000000000602082015250565b610bb681610a40565b8114610bc157600080fd5b5056fea2646970667358221220d59fc6d36161dd1fd3665bcc6d2c6b945c793bd86a5ec2507154d0b576c57a9964736f6c63430008040033",
  "linkReferences": {},
  "deployedLinkReferences": {}
}