{
  "_format": "hh-sol-artifact-1",
  "contractName": "Event",
  "sourceName": "contracts/Event.sol",
  "abi": [
    {
      "inputs": [],
      "stateMutability": "nonpayable",
      "type": "constructor"
    },
    {
      "anonymous": false,
      "inputs": [
        {
          "indexed": false,
          "internalType": "uint256",
          "name": "_eventRegistrationClosedAt",
          "type": "uint256"
        }
      ],
      "name": "eventClosed",
      "type": "event"
    },
    {
      "anonymous": false,
      "inputs": [
        {
          "indexed": false,
          "internalType": "string",
          "name": "_name",
          "type": "string"
        },
        {
          "indexed": false,
          "internalType": "string",
          "name": "_date",
          "type": "string"
        },
        {
          "indexed": false,
          "internalType": "string",
          "name": "_time",
          "type": "string"
        },
        {
          "indexed": false,
          "internalType": "uint256",
          "name": "_fees",
          "type": "uint256"
        }
      ],
      "name": "eventDetailsUpdated",
      "type": "event"
    },
    {
      "inputs": [],
      "name": "closeEventRegistration",
      "outputs": [],
      "stateMutability": "nonpayable",
      "type": "function"
    },
    {
      "inputs": [],
      "name": "eventDate",
      "outputs": [
        {
          "internalType": "string",
          "name": "",
          "type": "string"
        }
      ],
      "stateMutability": "view",
      "type": "function"
    },
    {
      "inputs": [],
      "name": "eventName",
      "outputs": [
        {
          "internalType": "string",
          "name": "",
          "type": "string"
        }
      ],
      "stateMutability": "view",
      "type": "function"
    },
    {
      "inputs": [],
      "name": "eventRegistrationClosedAt",
      "outputs": [
        {
          "internalType": "uint256",
          "name": "",
          "type": "uint256"
        }
      ],
      "stateMutability": "view",
      "type": "function"
    },
    {
      "inputs": [],
      "name": "eventRegistrationFee",
      "outputs": [
        {
          "internalType": "uint256",
          "name": "",
          "type": "uint256"
        }
      ],
      "stateMutability": "view",
      "type": "function"
    },
    {
      "inputs": [],
      "name": "eventTime",
      "outputs": [
        {
          "internalType": "string",
          "name": "",
          "type": "string"
        }
      ],
      "stateMutability": "view",
      "type": "function"
    },
    {
      "inputs": [],
      "name": "isEventRegistrationClosed",
      "outputs": [
        {
          "internalType": "bool",
          "name": "",
          "type": "bool"
        }
      ],
      "stateMutability": "view",
      "type": "function"
    },
    {
      "inputs": [],
      "name": "owner",
      "outputs": [
        {
          "internalType": "address",
          "name": "",
          "type": "address"
        }
      ],
      "stateMutability": "view",
      "type": "function"
    },
    {
      "inputs": [
        {
          "internalType": "string",
          "name": "_eventName",
          "type": "string"
        },
        {
          "internalType": "string",
          "name": "_eventDate",
          "type": "string"
        },
        {
          "internalType": "string",
          "name": "_eventTime",
          "type": "string"
        },
        {
          "internalType": "uint256",
          "name": "_eventRegistrationFee",
          "type": "uint256"
        }
      ],
      "name": "updateEventDetails",
      "outputs": [],
      "stateMutability": "nonpayable",
      "type": "function"
    }
  ],
  "bytecode": "0x60806040526040518060400160405280601281526020017f426c6f636b436861696e20576562696e6172000000000000000000000000000081525060009080519060200190620000519291906200016a565b506040518060400160405280600a81526020017f323032322d30362d313200000000000000000000000000000000000000000000815250600190805190602001906200009f9291906200016a565b506040518060400160405280600581526020017f31343a303000000000000000000000000000000000000000000000000000000081525060029080519060200190620000ed9291906200016a565b506706f05b59d3b200006003556000600460146101000a81548160ff0219169083151502179055503480156200012257600080fd5b5033600460006101000a81548173ffffffffffffffffffffffffffffffffffffffff021916908373ffffffffffffffffffffffffffffffffffffffff1602179055506200027f565b82805462000178906200021a565b90600052602060002090601f0160209004810192826200019c5760008555620001e8565b82601f10620001b757805160ff1916838001178555620001e8565b82800160010185558215620001e8579182015b82811115620001e7578251825591602001919060010190620001ca565b5b509050620001f79190620001fb565b5090565b5b8082111562000216576000816000905550600101620001fc565b5090565b600060028204905060018216806200023357607f821691505b602082108114156200024a576200024962000250565b5b50919050565b7f4e487b7100000000000000000000000000000000000000000000000000000000600052602260045260246000fd5b610baf806200028f6000396000f3fe608060405234801561001057600080fd5b50600436106100935760003560e01c80635fc74e3f116100665780635fc74e3f146100fa5780638043c9c0146101185780638da5cb5b14610136578063e9d7f20f14610154578063f53418561461017257610093565b80630c317e7b14610098578063126d494a146100b6578063457f570b146100c05780634bfbe5df146100dc575b600080fd5b6100a0610190565b6040516100ad919061088e565b60405180910390f35b6100be61021e565b005b6100da60048036038101906100d59190610724565b610384565b005b6100e46104a3565b6040516100f1919061088e565b60405180910390f35b610102610531565b60405161010f919061092a565b60405180910390f35b610120610537565b60405161012d919061088e565b60405180910390f35b61013e6105c5565b60405161014b9190610858565b60405180910390f35b61015c6105eb565b604051610169919061092a565b60405180910390f35b61017a6105f1565b6040516101879190610873565b60405180910390f35b6002805461019d90610a41565b80601f01602080910402602001604051908101604052809291908181526020018280546101c990610a41565b80156102165780601f106101eb57610100808354040283529160200191610216565b820191906000526020600020905b8154815290600101906020018083116101f957829003601f168201915b505050505081565b600460009054906101000a900473ffffffffffffffffffffffffffffffffffffffff1673ffffffffffffffffffffffffffffffffffffffff163373ffffffffffffffffffffffffffffffffffffffff16146102ae576040517f08c379a00000000000000000000000000000000000000000000000000000000081526004016102a59061090a565b60405180910390fd5b6000479050600081111561032657600460009054906101000a900473ffffffffffffffffffffffffffffffffffffffff1673ffffffffffffffffffffffffffffffffffffffff166108fc829081150290604051600060405180830381858888f19350505050158015610324573d6000803e3d6000fd5b505b6001600460146101000a81548160ff021916908315150217905550426005819055507f86d7ce8cea57acc6b1c4bf7a21bf2a3912df0a60072ec4f1323c270720b6f1a9600554604051610379919061092a565b60405180910390a150565b600460009054906101000a900473ffffffffffffffffffffffffffffffffffffffff1673ffffffffffffffffffffffffffffffffffffffff163373ffffffffffffffffffffffffffffffffffffffff1614610414576040517f08c379a000000000000000000000000000000000000000000000000000000000815260040161040b9061090a565b60405180910390fd5b836000908051906020019061042a929190610604565b508260019080519060200190610441929190610604565b508160029080519060200190610458929190610604565b50806003819055507f8c86e125c4a298063cb5bdc8b220d96de074d9cca51117841686be3349ece8cd8484848460405161049594939291906108b0565b60405180910390a150505050565b600180546104b090610a41565b80601f01602080910402602001604051908101604052809291908181526020018280546104dc90610a41565b80156105295780601f106104fe57610100808354040283529160200191610529565b820191906000526020600020905b81548152906001019060200180831161050c57829003601f168201915b505050505081565b60055481565b6000805461054490610a41565b80601f016020809104026020016040519081016040528092919081815260200182805461057090610a41565b80156105bd5780601f10610592576101008083540402835291602001916105bd565b820191906000526020600020905b8154815290600101906020018083116105a057829003601f168201915b505050505081565b600460009054906101000a900473ffffffffffffffffffffffffffffffffffffffff1681565b60035481565b600460149054906101000a900460ff1681565b82805461061090610a41565b90600052602060002090601f0160209004810192826106325760008555610679565b82601f1061064b57805160ff1916838001178555610679565b82800160010185558215610679579182015b8281111561067857825182559160200191906001019061065d565b5b509050610686919061068a565b5090565b5b808211156106a357600081600090555060010161068b565b5090565b60006106ba6106b58461096a565b610945565b9050828152602081018484840111156106d257600080fd5b6106dd8482856109ff565b509392505050565b600082601f8301126106f657600080fd5b81356107068482602086016106a7565b91505092915050565b60008135905061071e81610b62565b92915050565b6000806000806080858703121561073a57600080fd5b600085013567ffffffffffffffff81111561075457600080fd5b610760878288016106e5565b945050602085013567ffffffffffffffff81111561077d57600080fd5b610789878288016106e5565b935050604085013567ffffffffffffffff8111156107a657600080fd5b6107b2878288016106e5565b92505060606107c38782880161070f565b91505092959194509250565b6107d8816109b7565b82525050565b6107e7816109c9565b82525050565b60006107f88261099b565b61080281856109a6565b9350610812818560208601610a0e565b61081b81610b02565b840191505092915050565b60006108336033836109a6565b915061083e82610b13565b604082019050919050565b610852816109f5565b82525050565b600060208201905061086d60008301846107cf565b92915050565b600060208201905061088860008301846107de565b92915050565b600060208201905081810360008301526108a881846107ed565b905092915050565b600060808201905081810360008301526108ca81876107ed565b905081810360208301526108de81866107ed565b905081810360408301526108f281856107ed565b90506109016060830184610849565b95945050505050565b6000602082019050818103600083015261092381610826565b9050919050565b600060208201905061093f6000830184610849565b92915050565b600061094f610960565b905061095b8282610a73565b919050565b6000604051905090565b600067ffffffffffffffff82111561098557610984610ad3565b5b61098e82610b02565b9050602081019050919050565b600081519050919050565b600082825260208201905092915050565b60006109c2826109d5565b9050919050565b60008115159050919050565b600073ffffffffffffffffffffffffffffffffffffffff82169050919050565b6000819050919050565b82818337600083830152505050565b60005b83811015610a2c578082015181840152602081019050610a11565b83811115610a3b576000848401525b50505050565b60006002820490506001821680610a5957607f821691505b60208210811415610a6d57610a6c610aa4565b5b50919050565b610a7c82610b02565b810181811067ffffffffffffffff82111715610a9b57610a9a610ad3565b5b80604052505050565b7f4e487b7100000000000000000000000000000000000000000000000000000000600052602260045260246000fd5b7f4e487b7100000000000000000000000000000000000000000000000000000000600052604160045260246000fd5b6000601f19601f8301169050919050565b7f546869732066756e6374696f6e206973207265737472696374656420746f207460008201527f686520636f6e747261637427732061646d696e00000000000000000000000000602082015250565b610b6b816109f5565b8114610b7657600080fd5b5056fea26469706673582212206a429950363ddff6b2c8730e97141b5e9d124bae96ff2071928bb6bb8951ae1564736f6c63430008040033",
  "linkReferences": {},
  "deployedLinkReferences": {}
}